:020000040800F2
:1000000000280020810B0008250B00082B0B00089E
:10001000310B0008370B00083D0B00080000000002
:10002000000000000000000000000000430B00087A
:100030004F0B0008000000005B0B0008670B000876
:10004000C90B0008C90B0008C90B0008C90B000840
:10005000C90B0008C90B0008C90B0008C90B000830
:10006000C90B0008C90B0008C90B0008C90B000820
:10007000C90B0008C90B0008C90B0008C90B000810
:10008000C90B0008C90B0008C90B0008C90B000800
:10009000C90B0008C90B0008C90B0008C90B0008F0
:1000A000C90B0008C90B0008C90B0008C90B0008E0
:1000B000C90B0008C90B000800000000C90B0008AC
:1000C000C90B00080000000000000000C90B000878
:1000D00000000000C90B0008C90B00080000000068
:1000E000C90B0008C90B0008C90B0008000000007C
:1000F0000000000000000000000000000000000000
:0C01000000000000000000005FF808F1A3
:10010C0010B5054C237833B9044B13B10448AFF345
:10011C0000800123237010BD0C00002000000000A3
:10012C00D419000808B5034B1BB103490348AFF3BE
:10013C00008008BD0000000010000020D419000849
:10014C0080B582B000AF78607B68092B00F28081AB
:10015C0001A252F823F000BF150400088D0100081D
:10016C00D50100081D02000865020008AD02000858
:10017C00F50200083D03000885030008CD030008C4
:10018C0001220121B44800F0FFFF00220221B248F5
:10019C0000F0FAFF00220421AF4800F0F5FF012225
:1001AC004021AD4800F0F0FF01222021AA4800F0C8
:1001BC00EBFF01221021A84800F0E6FF01220821E4
:1001CC00A54800F0E1FF43E100220121A24800F024
:1001DC00DBFF00220221A04800F0D6FF01220421FF
:1001EC009D4800F0D1FF002240219B4800F0CCFF3D
:1001FC0001222021984800F0C7FF002210219648C8
:10020C0000F0C2FF00220821934800F0BDFF1FE15F
:10021C0000220121904800F0B7FF002202218E48F5
:10022C0000F0B2FF002204218B4800F0ADFF002249
:10023C004021894800F0A8FF01222021864800F0C7
:10024C00A3FF01221021844800F09EFF0022082108
:10025C00814800F099FFFBE0012201217E4800F06B
:10026C0093FF002202217C4800F08EFF0022042123
:10027C00794800F089FF00224021774800F084FF84
:10028C0000222021744800F07FFF012210217248C7
:10029C0000F07AFF012208216F4800F075FFD7E0CB
:1002AC00002201216C4800F06FFF012202216A48F4
:1002BC0000F06AFF00220421674800F065FF00226D
:1002CC004021654800F060FF00222021624800F0C8
:1002DC005BFF01221021604800F056FF002208212C
:1002EC005D4800F051FFB3E0002201215A4800F0B4
:1002FC004BFF01220221584800F046FF0022042146
:10030C00554800F041FF00224021534800F03CFFCB
:10031C0000222021504800F037FF002210214E48C7
:10032C0000F032FF002208214B4800F02DFF8FE037
:10033C0000220121484800F027FF002202214648F4
:10034C0000F022FF00220421434800F01DFF01228F
:10035C004021414800F018FF012220213E4800F0C6
:10036C0013FF012210213C4800F00EFF012208214E
:10037C00394800F009FF6BE000220121364800F0FB
:10038C0003FF00220221344800F0FEFE002204216B
:10039C00314800F0F9FE002240212F4800F0F4FE15
:1003AC00002220212C4800F0EFFE002210212A48C8
:1003BC0000F0EAFE00220821274800F0E5FE47E0A5
:1003CC0000220121244800F0DFFE002202212248F5
:1003DC0000F0DAFE002204211F4800F0D5FE0022B6
:1003EC0040211D4800F0D0FE002220211A4800F0C8
:1003FC00CBFE01221021184800F0C6FE0022082175
:10040C00154800F0C1FE23E000220121124800F043
:10041C00BBFE00220221104800F0B6FE002204218F
:10042C000D4800F0B1FE012240210B4800F0ACFE5B
:10043C0000222021084800F0A7FE002210210648C7
:10044C0000F0A2FE00220821034800F09DFE00BF30
:10045C000837BD4680BD00BF000C014080B582B09E
:10046C0000AF78607B68092B00F2BC8101A252F8C6
:10047C0023F000BF9D070008A9040008FD04000834
:10048C0051050008A5050008F90500084D060008EF
:10049C00A1060008F5060008490700080122802182
:1004AC00D24800F071FE00224FF48071CF4800F06A
:1004BC006BFE00224FF40071CC4800F065FE012267
:1004CC004FF40051C94800F05FFE01224FF48051F7
:1004DC00C64800F059FE01224FF40061C34800F0F9
:1004EC0053FE01224FF48061C04800F04DFE79E1CB
:1004FC0000228021BD4800F047FE00224FF480719D
:10050C00BA4800F041FE01224FF40071B74800F0E8
:10051C003BFE00224FF40051B44800F035FE01229E
:10052C004FF48051B14800F02FFE00224FF40061CF
:10053C00AE4800F029FE00224FF48061AB4800F079
:10054C0023FE4FE100228021A84800F01DFE00226E
:10055C004FF48071A54800F017FE00224FF4007193
:10056C00A24800F011FE00224FF400519F4800F009
:10057C000BFE01224FF480519C4800F005FE012235
:10058C004FF40061994800F0FFFD00224FF48061A8
:10059C00964800F0F9FD25E101228021934800F0F6
:1005AC00F3FD00224FF48071904800F0EDFD002225
:1005BC004FF400718D4800F0E7FD00224FF400511C
:1005CC008A4800F0E1FD00224FF48051874800F08A
:1005DC00DBFD01224FF40061844800F0D5FD0122BF
:1005EC004FF48061814800F0CFFDFBE000228021B8
:1005FC007E4800F0C9FD01224FF480717B4800F069
:10060C00C3FD00224FF40071784800F0BDFD0022BC
:10061C004FF40051754800F0B7FD00224FF48051A3
:10062C00724800F0B1FD01224FF400616F4800F0F8
:10063C00ABFD00224FF480616C4800F0A5FDD1E0C9
:10064C0000228021694800F09FFD01224FF4807147
:10065C00664800F099FD00224FF40071634800F0E9
:10066C0093FD00224FF40051604800F08DFD0022F4
:10067C004FF480515D4800F087FD00224FF400617B
:10068C005A4800F081FD00224FF48061574800F079
:10069C007BFDA7E000228021544800F075FD00226C
:1006AC004FF48071514800F06FFD00224FF400713F
:1006BC004E4800F069FD01224FF400514B4800F008
:1006CC0063FD01224FF48051484800F05DFD01228A
:1006DC004FF40061454800F057FD01224FF4806152
:1006EC00424800F051FD7DE0002280213F4800F09F
:1006FC004BFD00224FF480713C4800F045FD002278
:10070C004FF40071394800F03FFD00224FF40051C6
:10071C00364800F039FD00224FF48051334800F088
:10072C0033FD00224FF40061304800F02DFD002213
:10073C004FF480612D4800F027FD53E0002280210A
:10074C002A4800F021FD00224FF48071274800F068
:10075C001BFD00224FF40071244800F015FD00220F
:10076C004FF40051214800F00FFD00224FF480514E
:10077C001E4800F009FD01224FF400611B4800F0F7
:10078C0003FD00224FF48061184800F0FDFC29E0C5
:10079C0000228021154800F0F7FC00224FF48071F4
:1007AC00124800F0F1FC00224FF400710F4800F0E9
:1007BC00EBFC01224FF400510C4800F0E5FC002248
:1007CC004FF48051094800F0DFFC00224FF4006127
:1007DC00064800F0D9FC00224FF48061034800F079
:1007EC00D3FC00BF0837BD4680BD00BF000C0140E4
:1007FC0080B582B000AF00F0E3F900F0C5F800F06E
:10080C00FFF805237B6000233B603B68002B51D134
:10081C00002202215B4800F0B7FC01220821594854
:10082C0000F0B2FC01220421564800F0ADFC7868BF
:10083C00FFF786FC7B68052B05D07B68042B02D068
:10084C007B68032B13D1002220214E4800F09CFC26
:10085C00012240214B4800F097FC0122102149480D
:10086C0000F092FC7B68023B1846FFF7F7FD7B68B3
:10087C00022B02D07B68012B11D100224021414870
:10088C0000F082FC012210213E4800F07DFC012288
:10089C0020213C4800F078FC7868FFF7DFFD7B688E
:1008AC00013B7B607B68002B66D101233B600323FB
:1008BC007B6061E03B68012B30D100220421314880
:1008CC0000F062FC012208212E4800F05DFC0122A0
:1008DC0002212C4800F058FC00221021294800F07D
:1008EC0053FC01224021274800F04EFC012220211C
:1008FC00244800F049FC7868FFF722FC7B6802333F
:10090C001846FFF7ABFD7B68013B7B607B68002BD7
:10091C0032D102233B6002237B602DE000220821B0
:10092C00184800F031FC01220221164800F02CFC82
:10093C0001220421134800F027FC00221021114849
:10094C0000F022FC012240210E4800F01DFC012287
:10095C0020210C4800F018FC7868FFF7F1FB786850
:10096C00FFF77CFD7B68013B7B607B68002B03D130
:10097C0000233B6005237B604FF47A7000F082F912
:10098C0043E700BF0008014080B590B000AF07F10D
:10099C00180328220021184601F00EF83B1D0022F6
:1009AC001A605A609A60DA601A610223BB610123F3
:1009BC00BB621023FB6200237B6307F1180318460C
:1009CC0000F0FAFB0346002B01D000F06DF80F236A
:1009DC007B600023BB600023FB6000233B61002392
:1009EC007B613B1D0021184600F066FE0346002B80
:1009FC0001D000F059F800BF4037BD4680BD000063
:100A0C0080B586B000AF07F1080300221A605A6067
:100A1C009A60DA60214B9B69204A43F0040393618E
:100A2C001E4B9B6903F004037B607B681B4B9B692B
:100A3C001A4A43F008039361184B9B6903F00803AF
:100A4C003B603B6800227E21154800F09DFB002294
:100A5C0043F6FF71134800F097FB7E23BB60012324
:100A6C00FB6000233B6102237B6107F108031946FD
:100A7C000B4800F00FFA43F6FF73BB600123FB60D9
:100A8C0000233B6102237B6107F1080319460548EB
:100A9C0000F000FA00BF1837BD4680BD00100240C0
:100AAC0000080140000C014080B400AF72B600BFDA
:100ABC00FEE7000080B485B000AF154B9B69144A6B
:100ACC0043F001039361124B9B6903F00103BB607C
:100ADC00BB680F4BDB690E4A43F08053D3610C4B60
:100AEC00DB6903F080537B607B680A4B5B68FB60BF
:100AFC00FB6823F0E063FB60FB6843F08063FB6002
:100B0C00044AFB68536000BF1437BD4680BC704775
:100B1C00001002400000014080B400AFFEE780B43A
:100B2C0000AFFEE780B400AFFEE780B400AFFEE795
:100B3C0080B400AFFEE780B400AF00BFBD4680BC00
:100B4C00704780B400AF00BFBD4680BC704780B416
:100B5C0000AF00BFBD4680BC704780B500AF00F051
:100B6C0075F800BF80BD80B400AF00BFBD4680BC2F
:100B7C0070470000FFF7F7FF0B480C490C4A0023A5
:100B8C0002E0D458C4500433C4188C42F9D3094A37
:100B9C00094C002301E013600432A242FBD300F0A5
:100BAC00E7FEFFF725FE7047000000200C00002038
:100BBC00181A00080C0000202C000020FEE7000092
:100BCC0080B500AF084B1B68074A43F01003136055
:100BDC00032000F02BF90F2000F008F8FFF76AFF54
:100BEC000023184680BD00BF0020024080B582B0B3
:100BFC0000AF7860124B1A68124B1B7819464FF4F1
:100C0C007A73B3FBF1F3B2FBF3F3184600F035F94A
:100C1C000346002B01D001230EE07B680F2B0AD872
:100C2C00002279684FF0FF3000F00BF9064A7B6820
:100C3C001360002300E0012318460837BD4680BD31
:100C4C0000000020080000200400002080B400AF49
:100C5C00054B1B781A46054B1B681344034A13605B
:100C6C0000BFBD4680BC7047080000202800002053
:100C7C0080B400AF024B1B681846BD4680BC704761
:100C8C002800002080B584B000AF7860FFF7F0FF3B
:100C9C00B8607B68FB60FB68B3F1FF3F05D00A4B83
:100CAC001B781A46FB681344FB6000BFFFF7E0FF9C
:100CBC000246BB68D31AFA689A42F7D800BF00BF45
:100CCC001037BD4680BD00BF0800002080B485B041
:100CDC0000AF78607B6803F00703FB600C4BDB68AC
:100CEC00BB60BA684FF6FF031340BB60FB681A0287
:100CFC00BB68134343F0BF6343F40033BB60044A47
:100D0C00BB68D36000BF1437BD4680BC704700BFC2
:100D1C0000ED00E080B400AF044BDB681B0A03F06D
:100D2C0007031846BD4680BC704700BF00ED00E0CD
:100D3C0080B483B000AF03463960FB7197F907307C
:100D4C00002B0ADB3B68DAB20C4997F90730120129
:100D5C00D2B20B4483F800230AE03B68DAB20849AC
:100D6C00FB7903F00F03043B1201D2B20B441A7649
:100D7C0000BF0C37BD4680BC704700BF00E100E0EF
:100D8C0000ED00E080B489B000AFF860B9607A6023
:100D9C00FB6803F00703FB61FB69C3F10703042B3A
:100DAC0028BF0423BB61FB690433062B02D9FB6902
:100DBC00033B00E000237B614FF0FF32BB6902FA7A
:100DCC0003F3DA43BB681A407B699A404FF0FF315A
:100DDC007B6901FA03F3D9437B680B401343184634
:100DEC002437BD4680BC704780B582B000AF7860B8
:100DFC007B68013BB3F1807F01D301230FE00A4AEA
:100E0C007B68013B53600F214FF0FF30FFF790FFE1
:100E1C00054B00229A60044B07221A6000231846E7
:100E2C000837BD4680BD00BF10E000E080B582B041
:100E3C0000AF78607868FFF749FF00BF0837BD4600
:100E4C0080BD80B586B000AF0346B9607A60FB7395
:100E5C0000237B61FFF75EFF78617A68B968786977
:100E6C00FFF790FF024697F90F3011461846FFF72F
:100E7C005FFF00BF1837BD4680BD80B582B000AFA4
:100E8C0078607868FFF7B0FF034618460837BD4610
:100E9C0080BD000080B48BB000AF78603960002357
:100EAC007B6200233B6248E101227B6A02FA03F376
:100EBC00FB613B681B68FA691340BB61BA69FB694B
:100ECC009A4240F037813B685B68A34A93425ED0FC
:100EDC00A14A934275D8A14A934258D09F4A934253
:100EEC006FD89F4A934252D09D4A934269D89D4AEB
:100EFC0093424CD09B4A934263D89B4A934246D030
:100F0C00994A93425DD8122B2AD8122B59D801A298
:100F1C0052F823F09B0F0008750F0008870F00088C
:100F2C00C90F0008CF0F0008CF0F0008CF0F000823
:100F3C00CF0F0008CF0F0008CF0F0008CF0F00080D
:100F4C00CF0F0008CF0F0008CF0F0008CF0F0008FD
:100F5C00CF0F0008CF0F00087D0F0008910F00087D
:100F6C00824A934213D02CE03B68DB683B6229E059
:100F7C003B68DB6804333B6224E03B68DB68083386
:100F8C003B621FE03B68DB680C333B621AE03B685A
:100F9C009B68002B02D104233B6213E03B689B68E7
:100FAC00012B05D108233B627B68FA691A6109E0C1
:100FBC0008233B627B68FA695A6103E000233B62B9
:100FCC0000E000BFBB69FF2B01D87B6801E07B68A8
:100FDC0004337B61BB69FF2B02D87B6A9B0002E068
:100FEC007B6A083B9B003B617B691A680F213B695C
:100FFC0001FA03F3DB431A40396A3B6901FA03F344
:10100C001A437B691A603B685B6803F08053002BC2
:10101C0000F09080564B9B69554A43F00103936155
:10102C00534B9B6903F00103BB60BB68514A7B6A5D
:10103C009B08023352F82330FB607B6A03F00303F6
:10104C009B000F2202FA03F3DB43FA681340FB60A8
:10105C007B68494A93420DD07B68484A934207D03B
:10106C007B68474A934201D1022304E0032302E048
:10107C00012300E000237A6A02F0030292009340FD
:10108C00FA681343FB603B497B6A9B080233FA689E
:10109C0041F823203B685B6803F48013002B06D0D7
:1010AC00384B9A683749BB6913438B6006E0354B64
:1010BC009A68BB69DB43334913408B603B685B68C0
:1010CC0003F40013002B06D02E4BDA682D49BB69B4
:1010DC001343CB6006E02B4BDA68BB69DB43294931
:1010EC001340CB603B685B6803F40033002B06D0E5
:1010FC00244B5A682349BB6913434B6006E0214BD0
:10110C005A68BB69DB431F4913404B603B685B6803
:10111C0003F48033002B06D01A4B1A681949BB69AB
:10112C0013430B6006E0174B1A68BB69DB43154988
:10113C0013400B607B6A01337B623B681A687B6AE5
:10114C0022FA03F3002B7FF4AFAE00BF00BF2C37A5
:10115C00BD4680BC704700BF00003210000031104B
:10116C0000002210000021100000121000001110CD
:10117C00001002400000014000080140000C01403A
:10118C00001001400004014080B483B000AF7860CF
:10119C000B467B8013467B707B78002B03D07A88C0
:1011AC007B681A6103E07B881A047B681A6100BFB4
:1011BC000C37BD4680BC704780B586B000AF7860F8
:1011CC007B68002B01D101236CE27B681B6803F068
:1011DC000103002B00F08780924B5B6803F00C033B
:1011EC00042B0CD08F4B5B6803F00C03082B12D133
:1011FC008C4B5B6803F48033B3F5803F0BD1894B88
:10120C001B6803F40033002B6CD07B685B68002BED
:10121C0068D1012346E27B685B68B3F5803F06D159
:10122C00804B1B687F4A43F4803313602EE07B684D
:10123C005B68002B0CD17B4B1B687A4A23F4803300
:10124C001360784B1B68774A23F4802313601DE0EE
:10125C007B685B68B3F5A02F0CD1724B1B68714A8D
:10126C0043F4802313606F4B1B686E4A43F4803346
:10127C0013600BE06B4B1B686A4A23F480331360DA
:10128C00684B1B68674A23F4802313607B685B6898
:10129C00002B13D0FFF7ECFC386108E0FFF7E8FCFB
:1012AC0002463B69D31A642B01D90323FAE15D4B47
:1012BC001B6803F40033002BF0D014E0FFF7D8FCCC
:1012CC00386108E0FFF7D4FC02463B69D31A642B63
:1012DC0001D90323E6E1534B1B6803F40033002BC5
:1012EC00F0D100E000BF7B681B6803F00203002B09
:1012FC0063D04C4B5B6803F00C03002B0BD0494BB9
:10130C005B6803F00C03082B1CD1464B5B6803F4A1
:10131C008033002B16D1434B1B6803F00203002BC8
:10132C0005D07B681B69012B01D00123BAE13D4B31
:10133C001B6823F0F8027B685B69DB0039491343B7
:10134C000B603AE07B681B69002B20D0364B0122E6
:10135C001A60FFF78DFC386108E0FFF789FC024644
:10136C003B69D31A022B01D903239BE12D4B1B683C
:10137C0003F00203002BF0D02A4B1B6823F0F80279
:10138C007B685B69DB00274913430B6015E0264B38
:10139C0000221A60FFF76CFC386108E0FFF768FC6C
:1013AC0002463B69D31A022B01D903237AE11D4B68
:1013BC001B6803F00203002BF0D17B681B6803F061
:1013CC000803002B3AD07B689B69002B19D0174B74
:1013DC0001221A60FFF74CFC386108E0FFF748FC6B
:1013EC0002463B69D31A022B01D903235AE10D4B58
:1013FC005B6A03F00203002BF0D0012000F09AFA94
:10140C001CE00A4B00221A60FFF732FC38610FE037
:10141C00FFF72EFC02463B69D31A022B08D9032393
:10142C0040E100BF001002400000424280044242F2
:10143C009E4B5B6A03F00203002BE9D17B681B68AF
:10144C0003F00403002B00F0A6800023FB75974BE0
:10145C00DB6903F08053002B0DD1944BDB69934A6D
:10146C0043F08053D361914BDB6903F08053BB6035
:10147C00BB680123FB758E4B1B6803F48073002B38
:10148C0018D18B4B1B688A4A43F480731360FFF7A7
:10149C00EFFB386108E0FFF7EBFB02463B69D31A20
:1014AC00642B01D90323FDE0814B1B6803F480738B
:1014BC00002BF0D07B68DB68012B06D17B4B1B6AC1
:1014CC007A4A43F0010313622DE07B68DB68002B42
:1014DC000CD1764B1B6A754A23F001031362734BD4
:1014EC001B6A724A23F0040313621CE07B68DB68FE
:1014FC00052B0CD16D4B1B6A6C4A43F00403136231
:10150C006A4B1B6A694A43F0010313620BE0674B99
:10151C001B6A664A23F001031362644B1B6A634A1D
:10152C0023F0040313627B68DB68002B15D0FFF7F4
:10153C009FFB38610AE0FFF79BFB02463B69D31A1D
:10154C0041F28832934201D90323ABE0574B1B6A1B
:10155C0003F00203002BEED014E0FFF789FB386197
:10156C000AE0FFF785FB02463B69D31A41F2883249
:10157C00934201D9032395E04C4B1B6A03F0020301
:10158C00002BEED1FB7D012B05D1484BDB69474A83
:10159C0023F08053D3617B68DB69002B00F08180E2
:1015AC00424B5B6803F00C03082B61D07B68DB6952
:1015BC00022B46D13F4B00221A60FFF759FB3861D2
:1015CC0008E0FFF755FB02463B69D31A022B01D901
:1015DC00032367E0354B1B6803F00073002BF0D13D
:1015EC007B681B6AB3F5803F08D1304B5B6823F4F2
:1015FC0000327B689B682D4913434B602B4B5B6817
:10160C0023F474127B68196A7B685B6A0B43274965
:10161C0013434B60274B01221A60FFF729FB3861FB
:10162C0008E0FFF725FB02463B69D31A022B01D9D0
:10163C00032337E01D4B1B6803F00073002BF0D025
:10164C002FE01C4B00221A60FFF712FB386108E0F8
:10165C00FFF70EFB02463B69D31A022B01D9032379
:10166C0020E0124B1B6803F00073002BF0D118E044
:10167C007B68DB69012B01D1012313E00B4B5B6809
:10168C00FB60FB6803F480327B681B6A9A4206D1CC
:10169C00FB6803F470127B685B6A9A4201D00123E9
:1016AC0000E0002318461837BD4680BD00100240EC
:1016BC00007000406000424280B584B000AF78609A
:1016CC0039607B68002B01D10123D0E06A4B1B6889
:1016DC0003F007033A689A4210D9674B1B6823F052
:1016EC00070265493B6813430B60634B1B6803F0AF
:1016FC0007033A689A4201D00123B8E07B681B6863
:10170C0003F00203002B20D07B681B6803F004035A
:10171C00002B05D0594B5B68584A43F4E063536087
:10172C007B681B6803F00803002B05D0534B5B68E8
:10173C00524A43F460535360504B5B6823F0F00201
:10174C007B689B684D4913434B607B681B6803F0B7
:10175C000103002B40D07B685B68012B07D1474B02
:10176C001B6803F40033002B15D101237FE07B6849
:10177C005B68022B07D1414B1B6803F00073002BF5
:10178C0009D1012373E03D4B1B6803F00203002BCE
:10179C0001D101236BE0394B5B6823F003027B68BA
:1017AC005B68364913434B60FFF762FAF8600AE056
:1017BC00FFF75EFA0246FB68D31A41F28832934275
:1017CC0001D9032353E02D4B5B6803F00C027B68BB
:1017DC005B689B009A42EBD1274B1B6803F0070315
:1017EC003A689A4210D2244B1B6823F00702224914
:1017FC003B6813430B60204B1B6803F007033A68EC
:10180C009A4201D0012332E07B681B6803F0040389
:10181C00002B08D0194B5B6823F4E0627B68DB6813
:10182C00164913434B607B681B6803F00803002BBD
:10183C0009D0124B5B6823F460527B681B69DB0098
:10184C000E4913434B6000F021F802460B4B5B68CA
:10185C001B0903F00F030A49CB5C22FA03F3094A74
:10186C001360094B1B681846FFF7C0F90023184694
:10187C001037BD4680BD00BF002002400010024062
:10188C00EC190008000000200400002080B487B090
:10189C0000AF0023FB600023BB6000237B610023AF
:1018AC007B6000233B611E4B5B68FB60FB6803F0B5
:1018BC000C03042B02D0082B03D027E0194B3B61FF
:1018CC0027E0FB689B0C03F00F03174AD35C7B608B
:1018DC00FB6803F48033002B10D0114B5B685B0C5E
:1018EC0003F00103114AD35CBB607B680D4A02FB19
:1018FC0003F2BB68B2FBF3F37B6104E07B680C4A38
:10190C0002FB03F37B617B693B6102E0054B3B61AE
:10191C0000BF3B6918461C37BD4680BC704700BFF2
:10192C000010024000127A00FC1900080C1A000882
:10193C0000093D0080B485B000AF78600A4B1B688D
:10194C000A4AA2FB03235B0A7A6802FB03F3FB60DF
:10195C0000BFFB685A1EFA60002BF9D100BF00BF14
:10196C001437BD4680BC704700000020D34D621078
:10197C0070B500260C4D0D4C641BA410A64209D169
:10198C0000F022F800260A4D0A4C641BA410A64253
:10199C0005D170BD55F8043B98470136EEE755F874
:1019AC00043B98470136F2E7101A0008101A000899
:1019BC00101A0008141A000803460244934200D17E
:1019CC00704703F8011BF9E7F8B500BFF8BC08BC79
:1019DC009E467047F8B500BFF8BC08BC9E467047E1
:1019EC0000000000000000000102030406070809C3
:1019FC0002030405060708090A0B0C0D0E0F101044
:041A0C0001020000D3
:041A10003101000898
:041A14000D010008B8
:0C1A180000127A00100000000100000025
:0400000508000B8163
:00000001FF
